:100000000C94BB020C94E3020C94E3020C94E30204
:100010000C94E3020C94E3020C94E3020C94E302CC
:100020000C94E3020C94E3020C94E3020C94E302BC
:100030000C94E3020C94E3020C94E3020C94E302AC
:100040000C94BA0B0C94E3020C94110D0C94430D18
:100050000C94E3020C94E3020C94E3020C94E3028C
:100060000C94FF180C94E30220454550524F4D204C
:100070005772697474656E20746F00202D69732D3A
:1000800020002020745F62756666657220696E6468
:100090006578202D200020576569726420496E70B4
:1000A00075742074686572652066656C6C612C20BF
:1000B00054727920416761696E200042656E6E69F5
:1000C00065277320446F7065204450532050726F31
:1000D0006A656374212056657273696F6E3A207683
:1000E0002E0065783A2074696D6520736574203739
:1000F0002032322031392031362032302033330063
:10010000456E7465722074696D65202774696D652C
:100110002073657420646179206D6F6E7468207936
:1001200065617220686F7572206D696E75746520E7
:100130007365636F6E642700202D69732D20002086
:100140002062756666657220696E646578202D2070
:1001500000002052482500202A432C200053616DC6
:10016000706C65204F4B3A2000206D696C6C697390
:1001700065636F6E647300204C454420697320678B
:100180007265656E2C20426C696E6B2072617465BD
:10019000203D2000206D696C6C697365636F6E642F
:1001A0007300204C4544206973205265642C204222
:1001B0006C696E6B2072617465203D20004C454473
:1001C00020697320477265656E004C454420697351
:1001D00020526564004C4544206973206F666600B8
:1001E00020443133202D204F464600204431332017
:1001F0002D204F4E00206D696C6C697365636F6EC6
:1002000064730020443133202D204F4E2C20426C4B
:10021000696E6B2072617465203D200020707269E8
:100220006E74696E67204C454420737461747573F5
:100230002E2E2E002042616420696E7075742E2E61
:1002400074797065202748454C502720666F7220CE
:1002500061206C697374206F6620636F6D6D616ED1
:100260006473200056455253494F4E2020202020D1
:1002700020202D205072696E747320637572726530
:100280006E742050726F6772616D2056657273696B
:100290006F6E00535441545553204C454420202048
:1002A000202D205072696E747320537461747573BD
:1002B000206F6620616C6C204C4544277300202021
:1002C0002020202020202020202020202020657891
:1002D0003B2053455420424C494E4B203130303066
:1002E000202D205365747320626C696E6B20696EDB
:1002F00074657276616C20746F20313030306D73AC
:100300000053455420424C494E4B20232323202D9B
:10031000207365747320626C696E6B20696E7465FE
:100320007276616C20666F7220616C6C206C656403
:1003300027732027696E206D73270020202020203E
:1003400020202020202020202020204C4544204216
:100350004C494E4B202D20626C696E6B73204C45CE
:100360004420402053455420424C494E4B20696E56
:1003700074657276616C00202020202020202020CF
:10038000202020202020204C4544204F4646202D70
:10039000207475726E73204C4544206F6666002091
:1003A0002020202020202020202020202020204C21
:1003B000454420524544202D207475726E73204CA4
:1003C0004544207265640020202020202020202029
:1003D0002020202020202065783B204C45442047C9
:1003E0005245454E202D207475726E73204C454445
:1003F00020677265656E004C454420202020202037
:1004000020202020202D20436F6E74726F6C73208B
:100410006578742E204C4544002020202020202088
:1004200020202020202020202044313320424C490D
:100430004E4B202D20626C696E6B7320443133204B
:10044000402053455420424C494E4B20696E746500
:100450007276616C00202020202020202020202087
:100460002020202020443133204F4646202D207468
:1004700075726E7320443133206F66660020202031
:100480002020202020202020202020202065783BB4
:1004900020443133204F4E202D207475726E73200E
:1004A000443133206F6E004431332020202020203F
:1004B00020202020202D20436F6E74726F6C7320DB
:1004C0006F6E2D626F617264206C65640048454CEC
:1004D00050202020202020202020202D2050726914
:1004E0006E747320746869732068656C70206D6524
:1004F0006E7500434F4D4D414E4453002020202047
:10050000202020202D48454C50204D454E552D0093
:1005100000000000080002010000030407000000C2
:1005200000000000000102040810204080010204C5
:100530000810200102040810200404040404040428
:100540000402020202020203030303030300000089
:100550000023002600290000000000250028002BB1
:100560000000000000240027002A00323000950A15
:10057000730D1518B00A11241FBECFEFD8E0DEBFEF
:10058000CDBF12E0A0E0B1E0E2E2FFE302C00590DF
:100590000D92A435B107D9F724E0A4E5B2E001C07B
:1005A0001D92AE34B207E1F715E0C4E7D5E004C010
:1005B0002297FE010E94801FCE36D107C9F70E9404
:1005C000FC0E0C94A41D0C94000060E175E08DEE0F
:1005D00092E00E94790F6CEF74E08DEE92E00E9441
:1005E000790F63EF74E08DEE92E00E94790F6DEC6D
:1005F00074E08DEE92E00E94790F67EA74E08DEE70
:1006000092E00E94790F6DE774E08DEE92E00E9417
:10061000790F65E574E08DEE92E00E94790F69E153
:1006200074E08DEE92E00E94790F67EF73E08DEE3B
:1006300092E00E94790F67EC73E08DEE92E00E94E9
:10064000790F6FE973E08DEE92E00E94790F67E712
:1006500073E08DEE92E00E94790F6BE373E08DEE14
:1006600092E00E94790F61E073E08DEE92E00E94CB
:10067000790F6EEB72E08DEE92E00E94790F63E9E4
:1006800072E08DEE92E00E94790F64E672E08DEEEA
:1006900092E00C94790FECE8F2E0119282E0E839F4
:1006A000F807D9F7E8E9F2E0119282E0E03CF807B8
:1006B000D9F7089564E372E08DEE92E00C94790F1F
:1006C00080916A01882331F06CE172E08DEE92E056
:1006D0000E94790F80917B028C3C39F08F3FC1F0F2
:1006E00081111DC060EE71E015C063E072E08DEE17
:1006F00092E00E94490F60916B0170916C014AE099
:1007000050E08DEE92E00E94931065EF71E002C020
:100710006BEE71E08DEE92E00E94790F02C00E94B4
:100720005A03809169018A3A69F028F4853569F0A5
:10073000873709F108958B3B59F08F3F91F565EDAF
:1007400071E02BC06AEC71E028C06DEB71E025C050
:1007500062EA71E08DEE92E00E94490F60916B01B8
:1007600070916C014AE050E08DEE92E00E9493108F
:1007700064E971E012C067E771E08DEE92E00E94DB
:10078000490F60916B0170916C014AE050E08DEE71
:1007900092E00E94931069E671E08DEE92E00C9475
:1007A000790F0895863889F4809169018F3F11F49B
:1007B00080916801873729F118F4853501F1089592
:1007C0008A3A89F08B3B89F021C0853821F48FEF7C
:1007D000809369010895823851F4809168018B3BC0
:1007E00011F0873711F48BEB0DC08AEA0BC0833808
:1007F00069F4809168018B3B11F0873711F487E72A
:1008000001C085E580936901809368010895809116
:1008100074028823B9F08091770290917A0298133C
:1008200007C010927A02109279021092780208950D
:1008300080937A028091760280937902809175028A
:100840008093780208950F931F930E94040C0091E7
:100850008702109188022091890230918A02601BE0
:10086000710B820B930B00916B0110916C0120E0D6
:1008700030E06017710782079307D8F16091670134
:1008800080917B0268238DE00E94DB0C6091670100
:1008900080916901682383E00E94DB0C80916701ED
:1008A000880F8093670160916901682382E00E944C
:1008B000DB0C80916701880F18160CF081E08093A3
:1008C00067010E94040C60938702709388028093F2
:1008D000890290938A020E94070400917802209175
:1008E000790240917A0260E070E08FEC92E00E9421
:1008F000E11B1F910F9108958C38A1F18039A1F56A
:100900006DE571E08DEE92E00E94490F6091680202
:100910007091690280916A0290916B020E94231E7D
:100920004AE050E08DEE92E00E94751067E571E0BC
:100930008DEE92E00E94490F609164027091650211
:1009400080916602909167020E94231E4AE050E067
:100950008DEE92E00E94751062E571E08DEE92E0FE
:100960000C94790F0C9460030C945A030F931F930B
:10097000CF93DF9390918D029E3F30F0DF91CF9126
:100980001F910F910C945A0330918F02983849F4BB
:1009900000918E0210E020E8329F000D111D1124FD
:1009A00002C0092F10E04091900220919102483836
:1009B00071F4509193025F3F51F450919202C22F13
:1009C000D0E060E8569FC00DD11D112402C0C0E0E8
:1009D000D0E02F3F79F4983811F4C42FD0E09091F3
:1009E0008E02983839F4C32FD0E090E8499FC00DAB
:1009F000D11D11243F3F21F4C0918E02D0E007C0E9
:100A00002F3F29F0909193029F3F09F05AC08E38F2
:100A100059F18F3809F055C061ED71E08DEE92E02B
:100A20000E948B0F4AE050E0B8018DEE92E00E94E8
:100A3000931067E771E08DEE92E00E946C0F4AE040
:100A400050E0BE018DEE92E00E94931063E771E0EA
:100A50008DEE92E00E946C0FC09FB001C19F700D9F
:100A6000D09F700D112423C061ED71E08DEE92E0F6
:100A70000E948B0F4AE050E0B8018DEE92E00E9498
:100A800093106FE671E08DEE92E00E946C0F4AE0E9
:100A900050E0BE018DEE92E00E94931063E771E09A
:100AA0008DEE92E00E946C0FBE01600F711F4AE054
:100AB00050E08DEE92E0DF91CF911F910F910C9459
:100AC0009910DF91CF911F910F910895EF92FF92AE
:100AD0000F931F93CF93DF93109262028FEF809357
:100AE0006301C9E1D0E08091650190916601C8176A
:100AF000D90708F0ABC00CE612E0CE018C5692404C
:100B00007C01C701800F911F0E94DD1EF8018193B7
:100B10008F01F2E004371F07A1F728969091720227
:100B200080916202891708F4892F80936302809371
:100B3000620280916301981708F4892F8093640101
:100B4000809363014AE050E060916C028DEE92E088
:100B50000E9475106BE771E08DEE92E00E946C0FC1
:100B60004AE050E060916D028DEE92E00E947510B7
:100B70006BE771E08DEE92E00E946C0F4AE050E06E
:100B800060916E028DEE92E00E94751069E771E04F
:100B90008DEE92E00E946C0F4AE050E060916F028F
:100BA0008DEE92E00E9475106DE771E08DEE92E09F
:100BB0000E946C0F4AE050E0609170028DEE92E06E
:100BC0000E9475106DE771E08DEE92E00E946C0F4F
:100BD0004AE050E0609171028DEE92E00E94751043
:100BE00060E871E08DEE92E00E946C0F4AE050E008
:100BF000609172028DEE92E00E9475106FE771E0D5
:100C00008DEE92E00E946C0F4AE050E0609173021A
:100C10008DEE92E00E94751064E871E08DEE92E036
:100C20000E946C0F68E871E08DEE92E00E946C0FFC
:100C30004AE050E0BE018DEE92E00E94931061ED1B
:100C400071E08DEE92E00E948B0F4DCF4AE050E0B4
:100C5000609163018DEE92E00E94751064E971E08D
:100C60008DEE92E00E948B0F4AE050E060916202AC
:100C70008DEE92E00E94751064EA71E08DEE92E0D4
:100C8000DF91CF911F910F91FF90EF900C948B0FFC
:100C900090918E0280918D029F3F49F48C3829F00B
:100CA000803949F480E90C947C040C9460038F3FF4
:100CB00011F40C9466050C945A0380918F028F3FB7
:100CC00021F0809191028F3FB1F580918D0286389D
:100CD00091F590918E0280916A01983899F4882359
:100CE00031F065EB71E08DEE92E00E948B0F809108
:100CF000900260918F0270E090E8899F600D711DF5
:100D000011240BC0882331F064EC71E08DEE92E089
:100D10000E948B0F60918E0270E070936C01609363
:100D20006B0180916A01882341F04AE050E08DEE2A
:100D300092E00C9499100C945A03089590918E02AD
:100D40009F3FA9F480918D02833859F020F48238B6
:100D500071F482E807C0853839F0863841F486E8B6
:100D600001C083E80C94D2039093690108950C9418
:100D70005A0390918E029F3F91F480918D028538A5
:100D800039F0863841F0843851F490937B0208950D
:100D900010927B0208958CEC80937B0208950C9452
:100DA0005A03AF92BF92CF92DF92EF92FF920F93CE
:100DB0001F93CF9380918E028F3F59F480918D02C3
:100DC000863839F48091740291E089278093740207
:100DD00061C0C0919002CF3F09F051C060918D0277
:100DE00060937A0270E080E090E01F921F921F9261
:100DF000CF93A12CB12C650114E6E12EF12C00E07B
:100E000010E020E030E0A9010E94AF1060937A0268
:100E100060918E026093790270E080E090E01F9212
:100E20001F921F92CF9320E030E0A9010E94AF10E3
:100E30006093790260918F026093780270E080E0A5
:100E400090E01F921F921F92CF9320E030E0A90103
:100E50000E94AF106093780280917A0280937702AB
:100E60008091790280937602609375028DB79EB768
:100E70000C960FB6F8949EBF0FBE8DBF0BC0CF91DE
:100E80001F910F91FF90EF90DF90CF90BF90AF90A8
:100E90000C945A03CF911F910F91FF90EF90DF9028
:100EA000CF90BF90AF90089580918D02873819F050
:100EB0008F3F89F10895809194028F3FF1F48091E2
:100EC0008E0280935F0280918F02809360028091F6
:100ED0009002809361028091910280935D028091E3
:100EE000920280935C028091930280935B026BE597
:100EF00072E08BEC92E00C94DA1160E071E08DEE20
:100F000092E00E94790F62EE70E08DEE92E00E9416
:100F1000790F0C945A038BEC92E00E940A132093F1
:100F20005B0230935C0240935D0250935E026093DB
:100F30005F0270936002809361024BE552E06DEEB8
:100F400072E08BEC92E00E9490118DEE92E00E9494
:100F5000750F4AE050E060915F028DEE92E00E94D2
:100F60007C104AE050E0609160028DEE92E00E94B9
:100F70007C104AE050E0609161028DEE92E00E94A8
:100F80007C104AE050E060915D028DEE92E00E949C
:100F90007C104AE050E060915C028DEE92E00E948D
:100FA0007C104AE050E060915B028DEE92E00C9480
:100FB0007C1080917D02882309F47EC010927D020E
:100FC000ECE8F2E08CE090E021912E3F11F480E01B
:100FD00090E09F012C58324028173907ACF3892B39
:100FE00009F468C080918C028C3809F451C080F4F7
:100FF000893809F447C038F4813809F44CC087387F
:1010000009F443C012C08A3899F08B3801F10DC041
:10101000813979F128F48E3879F18F3879F105C06A
:101020008339C1F018F18D3FC9F10E945A0340C0C5
:101030006BEB70E08DEE92E00E94490F4AE050E0C9
:101040006AE070E08DEE92E00E94501031C00E9484
:10105000E5022EC069E181E090E00E94E51E89E191
:1010600090E0909366018093650122C00E9454072E
:101070001FC00E94D1061CC08EE801C08FE80E94EC
:10108000B60416C00E94480613C00E945D0610C038
:101090000E949E060DC00E94B9060AC080918D0272
:1010A0008F3F31F480916A0191E0892780936A0132
:1010B0000C944B030C945A030895BF92CF92DF9285
:1010C000EF92FF920F931F93CF93DF9380917E0255
:1010D000882309F437C110925902109258021092D5
:1010E00056021AE00EEF48E8F42ECFEFDFEFEE24C1
:1010F000E39460915902E62FF0E0E856FD4F8081BD
:10110000882309F4E9C0262F30E0F901E856FD4FA5
:10111000D08081E0860F90E2D91202C0682FF3CF11
:1011200060935902C0907C02709157024091540222
:1011300050915502862F90E0BB24B394B60EDC018B
:10114000A856BD4FAC91AF7D31F0C12C70E040E0AE
:1011500050E06B2DEFCF60935802C0927C027093E9
:1011600057025093550240935402821B930B18165A
:1011700019060CF0ABC02D2D332727FD3095DF016C
:101180001196E72FF0E0E65FFE4F4081442321F106
:1011900050E024173507F1F4CC90DD24C7FCD0943F
:1011A000418150E0C416D506A9F4428150E084176D
:1011B000950781F470935702E0927C02A091560249
:1011C00081E08A0F80935602B0E0A457BD4F83811F
:1011D0008C9304C07C5FD5CF7093570280917C02C2
:1011E000811174C08091540290915502209159024E
:1011F000261768F5E22FF0E0E856FD4F308141E018
:10120000420F50ED530F5A30A8F02093570290939D
:1012100055028093540280916A01882331F066E977
:1012200070E08DEE92E00E94790FD0935502C0934A
:10123000540213C0FC011E9FC0011F9F900D11247A
:10124000C097830F911D37FD9A95242FD1CF2093FE
:1012500057029093550280935402809154029091CA
:101260005502E09156028115F0E49F0738F58F375B
:101270009105D8F0AE2FB0E0A457BD4FFC92A1E08D
:10128000AE0FB0E0A457BD4F282F2F772C9323E04B
:101290002E0F20935602EE5FF0E0E457FD4F880FCB
:1012A000892F881F990B919507C091E09E0F90930D
:1012B0005602F0E0E457FD4F808308C081E08E0FB6
:1012C00080935602F0E0E457FD4F0083809158026E
:1012D0008F5F809359020DCFE0915602F0E0E45702
:1012E000FD4F8FEF808310927E0280916A01811101
:1012F00004C081E080937D0225C00CE812E0C0E0CC
:10130000D0E062E870E08DEE92E00E94490F4AE082
:1013100050E0BE018DEE92E00E9448106BE770E055
:101320008DEE92E00E94490FF80161918F014AE031
:1013300050E08DEE92E00E947C102196CC30D105D9
:1013400001F7D7CFDF91CF911F910F91FF90EF90D1
:10135000DF90CF90BF9008950F931F93CF93DF93AB
:101360008BEC92E00E940A1320935B0230935C02A4
:1013700040935D0250935E0260935F02709360023F
:101380008093610260936C0270936D0280936E0291
:1013900040936F0230937002209371026091680253
:1013A0007091690280916A0290916B020E94231EE3
:1013B000609372026091640270916502809166028E
:1013C000909167020E94231E60937302CCE6D2E0E4
:1013D00009E110E0699180916501909166019C019D
:1013E0002F5F3F4F30936601209365010E94E51EF9
:1013F0006091650181E090E00E94E51E80916501A9
:10140000909166018A3F934020F01093660100930B
:10141000650182E0C437D807E9F6609165017091F3
:1014200066014AE050E08DEE92E00E94931068E67B
:1014300070E08DEE92E0DF91CF911F910F910C94AF
:10144000790F0F9326E040E855E260E070E08DEE02
:1014500092E00E94990E61E08DE00E94A20C61E092
:1014600082E00E94A20C61E083E00E94A20C0E9434
:10147000040C609387027093880280938902909392
:101480008A020E94040C609383027093840280930A
:101490008502909386020E94040C60937F027093F1
:1014A000800280938102909382028BEC92E00E94F2
:1014B000BA138FEC92E00E943E1A8FEC92E00E94E9
:1014C000C01A62E38FEC92E00E94351C00E020E03D
:1014D0004FEF60E070E08FEC92E00E94E11B2FEF95
:1014E0004FEF61E070E08FEC92E00E94E11B2FEF84
:1014F00040E062E070E08FEC92E00E94E11B8FEC34
:1015000092E00E94C01A81E090E00E94DD1E90E00F
:1015100090936601809365018FEF8093770210921C
:101520007602109275020F91089522E530E045E0B1
:1015300063E070E08FEC92E00E94B91B80E090E1E4
:101540009093CC028093CB029093CE028093CD02F5
:1015500060916D0170916E0180EC92E00C94E41644
:101560008FEC92E00C942C1AEF92FF920F931F9342
:10157000CF93DF931F92CDB7DEB78DEE92E00E943E
:10158000B60D181619060CF07EC08DEE92E00E9482
:10159000CF0D682F80935A0280EE860F8F35C8F4E6
:1015A00010918B021732A8F481E0810F80938B0297
:1015B000862F992787FD909569830E94A71DE12FAB
:1015C000F0E0E856FD4F808369818DEE92E00E9445
:1015D0006E0F80915A028D30F1F5E0918B02F0E0B0
:1015E000E856FD4F108261E571E08DEE92E00E94B9
:1015F000790F80916A01811106C081E080937E029B
:1016000010928B0228C058E9E52E52E0F52E870192
:101610000859124080918B0290E0081719076CF767
:101620006FE371E08DEE92E00E94490F4AE050E0D6
:10163000B8018DEE92E00E94481068E371E08DEEF3
:1016400092E00E94490FF70161917F018DEE92E0D7
:101650000E949D0FDCCF80915A028F37A1F48091B8
:101660008B02882381F0815080938B026EEC71E0B5
:101670008DEE92E00F90DF91CF911F910F91FF902F
:10168000EF900C946C0F0F90DF91CF911F910F9101
:10169000FF90EF900895CF93DF9320E030E044E691
:1016A00052E068E672E080EC92E00E942416EC01C1
:1016B000009779F062ED71E08DEE92E00E946C0F80
:1016C0004AE050E0BE018DEE92E0DF91CF910C94A4
:1016D0005010DF91CF9108950F931F930E94040C37
:1016E000009183021091840220918502309186023C
:1016F000601B710B820B930B683873418105910558
:1017000060F00E944B0B0E94040C60938302709364
:10171000840280938502909386020E94040C0091BB
:101720007F02109180022091810230918202601B21
:10173000710B820B930B603A7B4B8D40910560F0EF
:101740000E94AC090E94040C60937F027093800297
:1017500080938102909382020E94B40A0E945D08E5
:101760000E94D9070E9423048FEC92E01F910F91F1
:101770000C94C01A1F920F920FB60F9211242F9340
:101780003F938F939F93AF93BF938091E502909186
:10179000E602A091E702B091E8023091E40223E072
:1017A000230F2D3720F40196A11DB11D05C026E899
:1017B000230F0296A11DB11D2093E4028093E50240
:1017C0009093E602A093E702B093E8028091E902C9
:1017D0009091EA02A091EB02B091EC020196A11D5A
:1017E000B11D8093E9029093EA02A093EB02B093BB
:1017F000EC02BF91AF919F918F913F912F910F90EC
:101800000FBE0F901F9018952FB7F8946091E502C6
:101810007091E6028091E7029091E8022FBF08954F
:101820003FB7F8948091E9029091EA02A091EB020F
:10183000B091EC0226B5A89B05C02F3F19F0019688
:10184000A11DB11D3FBF6627782F892F9A2F620FE8
:10185000711D811D911D42E0660F771F881F991F22
:101860004A95D1F708958230910538F0880F991F75
:10187000880F991F05970197F1F70895789484B51B
:10188000826084BD84B5816084BD85B5826085BD7C
:1018900085B5816085BDEEE6F0E080818160808362
:1018A000E1E8F0E010828081826080838081816045
:1018B0008083E0E8F0E0808181608083E1EBF0E00C
:1018C000808184608083E0EBF0E0808181608083B0
:1018D000EAE7F0E080818460808380818260808399
:1018E0008081816080838081806880831092C100C4
:1018F0000895833081F028F4813099F08230A1F08E
:1019000008958730A9F08830B9F08430D1F48091FF
:1019100080008F7D03C0809180008F77809380004E
:10192000089584B58F7702C084B58F7D84BD0895F6
:101930008091B0008F7703C08091B0008F7D80933D
:10194000B0000895CF93DF9390E0FC01EB5DFA4F78
:101950002491FC01E75CFA4F8491882349F190E0DF
:10196000880F991FFC01EF59FA4FA591B491895A3C
:101970009A4FFC01C591D4919FB7611108C0F894AA
:101980008C91209582238C93888182230AC06230B7
:1019900051F4F8948C91322F309583238C93888165
:1019A000822B888304C0F8948C91822B8C939FBFE8
:1019B000DF91CF9108950F931F93CF93DF931F92E1
:1019C000CDB7DEB7282F30E0F901EF5EFA4F8491F2
:1019D000F901EB5DFA4F1491F901E75CFA4F0491BC
:1019E0000023C9F0882321F069830E94790C698162
:1019F000E02FF0E0EE0FFF1FE95AFA4FA591B491E6
:101A00009FB7F8948C91611103C01095812301C098
:101A1000812B8C939FBF0F90DF91CF911F910F91DE
:101A200008951F920F920FB60F9211242F938F9348
:101A30009F93EF93FF93E091FD02F091FE0280816E
:101A4000E0910303F091040382FD12C09081809124
:101A500006038F5F8F7320910703821751F0E09187
:101A60000603F0E0E351FD4F958F8093060301C01C
:101A70008081FF91EF919F918F912F910F900FBED9
:101A80000F901F9018951F920F920FB60F9211246E
:101A90002F933F934F935F936F937F938F939F9376
:101AA000AF93BF93EF93FF938DEE92E00E94F10D01
:101AB000FF91EF91BF91AF919F918F917F916F9126
:101AC0005F914F913F912F910F900FBE0F901F90FC
:101AD00018958DEE92E00E94B60D21E0892B09F455
:101AE00020E0822F08951092F0021092EF0288EE0B
:101AF00093E0A0E0B0E08093F1029093F202A09313
:101B0000F302B093F4028EEE91E09093EE02809394
:101B1000ED0285EC90E09093FA028093F90284EC58
:101B200090E09093FC028093FB0280EC90E0909315
:101B3000FE028093FD0281EC90E09093000380937D
:101B4000FF0282EC90E0909302038093010386EC05
:101B500090E0909304038093030310920603109285
:101B6000070310920803109209030895FC01818D68
:101B7000228D90E0805C9F4F821B91098F73992783
:101B80000895FC01918D828D981731F0828DE80FB8
:101B9000F11D858D90E008958FEF9FEF0895FC0172
:101BA000918D828D981761F0828DDF01A80FB11D94
:101BB0005D968C91928D9F5F9F73928F90E00895B8
:101BC0008FEF9FEF089589E69DE0892B49F080E033
:101BD00090E0892B29F00E94690D81110C9400007E
:101BE0000895FC01848DDF01A80FB11DA35ABF4FDA
:101BF0002C91848D90E001968F739927848FA6890C
:101C0000B7892C93A089B1898C9180648C93938D32
:101C1000848D981306C00288F389E02D80818F7D22
:101C200080830895CF93DF93EC01888D8823C9F0DA
:101C3000EA89FB89808185FD05C0A889B9898C91D5
:101C400086FD0FC00FB607FCF5CF808185FFF2CF70
:101C5000A889B9898C9185FFEDCFCE010E94F10D45
:101C6000E7CFDF91CF910895CF92DF92FF920F934C
:101C70001F93CF93DF931F92CDB7DEB76C0181E046
:101C8000D60158968C9358975B969C915B975C967F
:101C90008C915C97981307C05096ED91FC915197E9
:101CA000808185FD2EC0F601038D10E00F5F1F4F70
:101CB0000F731127F02EF601848DF81211C00FB6A4
:101CC00007FCF9CFD6015096ED91FC915197808198
:101CD00085FFF1CFC60169830E94F10D6981EBCFC9
:101CE000838DE80FF11DE35AFF4F6083D6015B96A9
:101CF0000C935B975296ED91FC9153978081806293
:101D00000CC0D6015696ED91FC9157976083509682
:101D1000ED91FC91519780818064808381E090E017
:101D20000F90DF91CF911F910F91FF90DF90CF9097
:101D30000895BF92CF92DF92EF92FF92CF93DF93FD
:101D4000EC016A017B01B22EE889F98982E0808387
:101D5000411581EE580761057105A1F060E079E059
:101D60008DE390E0A70196010E94231F21503109C5
:101D7000410951095695479537952795211580E1D9
:101D8000380798F0E889F989108260E874E88EE1F4
:101D900090E0A70196010E94231F215031094109BB
:101DA00051095695479537952795EC85FD853083E4
:101DB000EE85FF852083188EEC89FD89B082EA8943
:101DC000FB89808180618083EA89FB8980818860CA
:101DD0008083EA89FB89808180688083EA89FB8926
:101DE00080818F7D8083DF91CF91FF90EF90DF9096
:101DF000CF90BF90089508950E943E0C0E94FB0E64
:101E00000E94210AC3EEDDE00E946C0B2097E1F3F3
:101E10000E94E30DF9CFCF92DF92EF92FF920F93E2
:101E20001F93CF93DF937C016A01EB0100E010E088
:101E30000C151D0571F06991D701ED91FC91019090
:101E4000F081E02DC7010995892B19F00F5F1F4F15
:101E5000EFCFC801DF91CF911F910F91FF90EF90CD
:101E6000DF90CF9008956115710581F0DB010D9031
:101E70000020E9F7AD0141505109461B570BDC0129
:101E8000ED91FC910280F381E02D099480E090E0D7
:101E90000895EF92FF920F931F93CF93DF938C01DE
:101EA0007B01C0E0D0E0F701EC0FFD1F64916623D9
:101EB00059F0F801A081B181ED91FC91C80109951B
:101EC000892B11F02196EFCFCE01DF91CF911F9199
:101ED0000F91FF90EF9008950C94330FDC01ED917A
:101EE000FC910190F081E02D09946AEF71E00C946F
:101EF000330F0F931F93CF93DF93EC010E94490F91
:101F00008C01CE010E94750F800F911FDF91CF9140
:101F10001F910F9108950F931F93CF93DF93EC01BF
:101F20000E94330F8C01CE010E94750F800F911F0C
:101F3000DF91CF911F910F9108950F931F93CF932E
:101F4000DF93EC010E946E0F8C01CE010E94750F91
:101F5000800F911FDF91CF911F910F9108958F9264
:101F60009F92AF92BF92DF92EF92FF920F931F93D7
:101F7000CF93DF93CDB7DEB7A1970FB6F894DEBF4E
:101F80000FBECDBF7C01F42FD52ECB0119A222307C
:101F900008F42AE08E010F5D1F4F822E912CA12C98
:101FA000B12C6F2F7D2DA50194010E94231FF22FCC
:101FB000D32ECA01015011096A3014F4E0E301C0C4
:101FC000E7E3E60FD801EC93232B242B252B49F7CD
:101FD000B801C7010E94330FA1960FB6F894DEBF77
:101FE0000FBECDBFDF91CF911F910F91FF90EF906A
:101FF000DF90BF90AF909F908F900895CF92DF9227
:10200000EF92FF920F931F93CF93DF93EC016A013E
:102010007B012115310579F4E881F9810190F08186
:10202000E02D642FDF91CF911F910F91FF90EF90E2
:10203000DF90CF9009942A303105E9F477FF1AC078
:102040006DE20E946E0F8C0144275527BA014C198E
:102050005D096E097F092AE0CE010E94AF0F800F53
:10206000911FDF91CF911F910F91FF90EF90DF9023
:10207000CF9008952AE0B701A601CE01DF91CF915C
:102080001F910F91FF90EF90DF90CF900C94AF0FC6
:102090009A01AB01662757FD6095762F0C94FE0FD1
:1020A0000F931F93CF93DF93EC019A01AB01662747
:1020B00057FD6095762F0E94FE0F8C01CE010E9485
:1020C000750F800F911FDF91CF911F910F91089590
:1020D0002115310541F4DC01ED91FC910190F08175
:1020E000E02D642F09940C94AF0F9A01462F50E015
:1020F00060E070E00C9468100F931F93CF93DF9310
:10210000EC019A01462F50E060E070E00E946810F8
:102110008C01CE010E94750F800F911FDF91CF912E
:102120001F910F9108959A01AB0160E070E00C944B
:1021300068100F931F93CF93DF93EC019A01AB01CB
:1021400060E070E00E9468108C01CE010E94750F63
:10215000800F911FDF91CF911F910F9108954F92A2
:102160005F926F927F92AF92BF92CF92DF92EF9287
:10217000FF920F931F93CF93DF93CDB7DEB7290163
:102180003A01621B730B840B950B29893A894B89A1
:102190005C892A193B094C095D09298B3A8B4B8BC9
:1021A0005C8B9B01AC0169897A898B899C890E942F
:1021B000F31EE418F50806091709A80197010E9403
:1021C000451F2A0D3B1D4C1D5D1DCA01B901DF9144
:1021D000CF911F910F91FF90EF90DF90CF90BF9024
:1021E000AF907F906F905F904F900895DC01ED91DC
:1021F000FC910190F081E02D0994982F9695969589
:1022000096959E71292F220F220F290F8F70820F12
:1022100008956AE00E94031F292F30E1839FC001C7
:102220001124822B08951F93CF93DF93EC01162F77
:102230006A3018F460E30E946E0F4AE050E0612FAC
:10224000CE01DF91CF911F910C947510FF920F93E7
:102250001F93CF93DF93EB018A01F22EFA0186815F
:10226000853628F062E3CE010E946E0F05C06BE652
:1022700075E0CE010E94490FF8016681CE010E94EF
:1022800013116F2DCE010E946E0FF8016581CE01F2
:102290000E9413116F2DCE010E946E0FF801648110
:1022A000CE01DF91CF911F910F91FF900C941311EC
:1022B000CF92DF92EF92FF920F93CF93DF931F9213
:1022C000CDB7DEB76B017A01FA016281C6012983BD
:1022D0000E9413112981622FC6010E946E0FF7011F
:1022E0006181C6010E941311033089F0602FC6017D
:1022F0000E946E0FF7016081C6010F90DF91CF91B0
:102300000F91FF90EF90DF90CF900C9413110F90EE
:10231000DF91CF910F91FF90EF90DF90CF900895D4
:10232000CF92DF92EF92FF920F93CF93DF937C01D6
:10233000EB016A012DE20E94261164E5CE010E94A4
:102340006E0F0AE32AE3A601BE01C7010E945811DD
:10235000DF91CF910F91FF90EF90DF90CF90089594
:10236000CF93C82F68E68AE893E00E9491176C2FFC
:102370008AE893E00E9448178AE893E0CF910C9492
:102380001218CF93DF93D82FC62F68E68AE893E020
:102390000E9491176D2F8AE893E00E9448176C2FD6
:1023A0008AE893E00E9448178AE893E0DF91CF9192
:1023B0000C941218CF93DF93EB0168E68AE893E060
:1023C0000E94911760E070E08AE893E00E94F610A6
:1023D00088810E940911682F8AE893E00E944817BB
:1023E00089810E940911682F8AE893E00E944817AA
:1023F0008A810E940911682F8AE893E00E94481799
:102400008B81811101C081E00E940911682F8AE847
:1024100093E00E9448178C810E940911682F8AE876
:1024200093E00E9448178D810E940911682F8AE865
:1024300093E00E9448178E810E940911682F8AE854
:1024400093E00E9448178AE893E00E94121891E0F6
:10245000811190E0892FDF91CF910895CF93DF9381
:10246000EB010E94B01141E068E68AE893E00E9427
:102470000F188AE893E00E94F816888381E0DF91C4
:10248000CF910895EF92FF920F931F93CF93DF9315
:102490001F92CDB7DEB78B01F42EBE016F5F7F4F69
:1024A0008EE00E942E12811102C080E070C08F2D3C
:1024B0008370833019F48F2D8E7FF82E68E68AE8BA
:1024C00093E00E949117F0FE15C067E070E08AE883
:1024D00093E00E94F610F80180810E9409116F2D8F
:1024E0006078682B70E08AE893E00E94F61089819A
:1024F000856008C06BE070E08AE893E00E94F61007
:10250000898186608983FF0CF80181810E9409110D
:102510006F2D6078682B70E08AE893E00E94F610D7
:10252000FF0CF80182810E9409116F2D6078682BE1
:1025300070E08AE893E00E94F610FF0CFF2DF0781F
:10254000EF2EF801F6FE07C083810E9409116E2D5F
:102550006064682B05C084810E9409118E29682F50
:1025600070E08AE893E00E94F6108AE893E00E9407
:10257000121881119ACF69818EE00E94C1118111D8
:1025800094CF8F2D880F880F8295869587700F9036
:10259000DF91CF911F910F91FF90EF900895CF930E
:1025A000DF9300D0CDB7DEB76A831982662369F066
:1025B000BE016F5F7F4F8EE00E942E12882329F0AC
:1025C000698160688EE00E94C111BE016F5F7F4F1C
:1025D0008FE00E942E126981862F837021F06C7F1C
:1025E0008FE00E94C1118A81882369F0BE016E5F6D
:1025F0007F4F8EE00E942E12882329F06A816F7728
:102600008EE00E94C111898183700F900F90DF913D
:10261000CF910895BF92CF92DF92EF92FF920F93E6
:102620001F93CF93DF93CDB7DEB727970FB6F894FC
:10263000DEBF0FBECDBF80E00E94B01147E068E66C
:102640008AE893E00E940F18873009F046C08AE8B4
:1026500093E00E94F8160E94FD10C82E8AE893E0CD
:102660000E94F8160E94FD10D82E8AE893E00E947E
:10267000F816182F16FF0BC08F710E94FD1015FF62
:1026800002C090E001C09CE0192F180F04C08F73A6
:102690000E94FD10182F8AE893E00E94F8160E940D
:1026A000FD10E82E8AE893E00E94F8160E94FD10C3
:1026B000F82E8AE893E00E94F81687FF02C004E62D
:1026C00001C000E08F770E94FD10B82E8AE893E0E9
:1026D0000E94F8160E94FD10080F9601412F5E2DF2
:1026E0006F2D7B2D802F90E027960FB6F894DEBFDC
:1026F0000FBECDBFDF91CF911F910F91FF90EF9053
:10270000DF90CF90BF9008950F931F93CF93DF93E7
:10271000CDB7DEB727970FB6F894DEBF0FBECDBF9B
:102720008C010E940A1329833A834B835C838F8335
:102730008FE18D8382E08E8342E0BE016F5F7F4F29
:10274000C8010E94421241E0BE016F5F7F4FC80185
:102750000E94421260E0C8010E94CF1281E02796D9
:102760000FB6F894DEBF0FBECDBFDF91CF911F91A2
:102770000F910895CF93DF93EC018AE893E00E94D4
:10278000871760E08EE00E94C111CE01DF91CF91EA
:102790000C948413CF92DF92EF92FF920F931F93CA
:1027A000CF93DF93EC017A016901E881F98102841A
:1027B000F385E02D0995E881F9810280F381E02D10
:1027C0009801A601B701CE01DF91CF911F910F9122
:1027D000FF90EF90DF90CF900994262F2D7F29F462
:1027E000FC01608780E090E0089588E190E0089522
:1027F000DC0117967C936E931697FB01EB5DFA4F05
:10280000E4911996EC931997FB01E75CFA4F6491F8
:102810001A966C930895FC01818590E00895FC015F
:10282000828590E0089527E030E080E0FB0141914F
:10283000BF01022E01C0440F0A94EAF7840F215011
:102840003109A0F708958F929F92AF92BF92CF92D5
:10285000DF92EF92FF920F931F93CF93DF93EC01E0
:102860008B016A017901E881F9810288F389E02D01
:102870000995B82EE881F981B801685F7F4F028819
:10288000F389E02DCE010995A82EE881F981B801E0
:10289000605F7F4F0288F389E02DCE010995982E65
:1028A000E881F981B801685E7F4F0288F389E02DE5
:1028B000CE010995882EE881F981B801605E7F4FCD
:1028C0000288F389E02DCE0109959A2D9B0D990D73
:1028D000980D89130FC0682D70E07929F601718376
:1028E00060834A2D50E05B29F7015183408380E0EB
:1028F00090E002C085E190E0DF91CF911F910F91B0
:10290000FF90EF90DF90CF90BF90AF909F908F900F
:102910000895CF92DF92EF92FF920F931F93CF9380
:10292000DF93EC017A016901E881F9810284F38582
:10293000E02D0995E881F9810680F781E02D980165
:10294000A601B701CE01DF91CF911F910F91FF90AA
:10295000EF90DF90CF9009947F928F929F92AF92E9
:10296000BF92CF92DF92EF92FF920F931F93CF937C
:10297000DF93EC01162F4A0159010E94100C6B01E4
:102980007C01112311F0798401C0712C00E010E06A
:1029900021E060E070E0CB01222381F197FD32C09D
:1029A0002A813B814C815D812617370748075907EB
:1029B0004CF10115110529F41814190444F4C4014B
:1029C00004C01A141B041CF4C5010E94330C0E949D
:1029D000100C6C197D098E099F09EA85F0E0EE0F55
:1029E000FF1FE35BFA4FA591B4913C9129853223F7
:1029F00021E0371120E00F5F1F4FCECF462F372F3A
:102A0000282F04C04FEF3FEF2FEF9FEF642F732F5E
:102A1000822FDF91CF911F910F91FF90EF90DF9068
:102A2000CF90BF90AF909F908F907F900895EF923E
:102A3000FF920F931F93CF93DF93EC017B0188E20A
:102A4000FB0111928A95E9F761E08E810E94A20C48
:102A500060E08E810E94DB0C88EE93E00E94330CD4
:102A600061E08E810E94DB0C68858E810E94A20C41
:102A700088E290E00E94330CE881F9810088F189B6
:102A8000E02D26E030E04AE050E060E0CE0109951C
:102A90006E3171058105910534F4B82FA72F962F5B
:102AA000882780616FC0E881F9810088F189E02D75
:102AB00026E030E04AE050E061E0CE010995623363
:102AC00071058105910534F4B82FA72F962F88271B
:102AD000816158C000E010E0E881F9810088F18947
:102AE000E02D26E030E04AE050E060E0CE010995BC
:102AF000683171058105910534F4B82FA72F962F01
:102B0000882782613FC0E881F9810088F189E02D42
:102B100026E030E04AE050E061E0CE0109956B30FC
:102B200071058105910534F4B82FA72F962F8827BA
:102B3000836128C021E069327105810591050CF49B
:102B400020E0F70121937F010F5F1F4F083211052D
:102B500019F6E881F9810088F189E02D26E030E05E
:102B60004AE050E060E0CE010995683171058105C9
:102B7000910534F4B82FA72F962F8827846102C0BF
:102B800080E090E0DF91CF911F910F91FF90EF9047
:102B90000895CF92DF92EF92FF920F931F93CF93FE
:102BA000DF93CDB7DEB728970FB6F894DEBF0FBE20
:102BB000CDBF6B017A01DC0116964D915C911797A0
:102BC0004F3F5F4F81F11D821E821F82188619823E
:102BD0001A821B821C82DC01ED91FC910680F78138
:102BE000E02DAE014F5F5F4FBE016B5F7F4F0995D8
:102BF0008C010097B1F4C114D10441F06D817E8144
:102C00008F8198850E941E1EF6016083E114F104F5
:102C100041F069817A818B819C810E941E1ED701BF
:102C20006C93C80102C087E190E028960FB6F89433
:102C3000DEBF0FBECDBFDF91CF911F910F91FF90EF
:102C4000EF90DF90CF9008958F929F92AF92BF92B6
:102C5000CF92DF92EF92FF920F931F93CF93DF9368
:102C6000CDB7DEB7AC970FB6F894DEBF0FBECDBFC1
:102C70006C017B018A014901DC0116968D919C91C2
:102C80001797019609F472C0FE0131965F0188E240
:102C9000DF011D928A95E9F7D601ED91FC91048838
:102CA000F589E02DB501C6010995009709F060C0CE
:102CB0001CA61BA61AA619A6D601ED91FC910688A2
:102CC000F789E02D9E01275D3F4FAE01455D5F4FC7
:102CD000B501C6010995009709F04AC08114910415
:102CE00039F088E2F501D40101900D928A95E1F75F
:102CF000E114F10411F12BA53CA537FF03C08FEFC0
:102D00009FEF02C081E090E03F77829FB001839FF8
:102D1000700D929F700D1124882777FD8095982F54
:102D20000E94511E20E030E040E251E40E94B61DB6
:102D3000F701608371838283938301151105A1F0EC
:102D400069A57AA5882777FD8095982F0E94511E46
:102D500020E030E040E251E40E94B61DD8016D93BE
:102D60007D938D939C93139780E001C087E190E061
:102D7000AC960FB6F894DEBF0FBECDBFDF91CF91FA
:102D80001F910F91FF90EF90DF90CF90BF90AF9089
:102D90009F908F900895FC01CB012FE032E03183AA
:102DA000208340E45BE46CE470E0428353836483FB
:102DB00075832FEF3FEF3783268310862187228785
:102DC000BC01CF010C94F813CF93DF93EC010E9468
:102DD000CB168BE292E099838883DF91CF9108959F
:102DE0008091BA0390E02091BB03821B9109089562
:102DF0002091BB038091BA03281750F4E22FF0E032
:102E0000E454FC4F808190E02F5F2093BB03089532
:102E10008FEF9FEF0895E091BB038091BA03E8170D
:102E200030F4F0E0E454FC4F808190E008958FEF9F
:102E30009FEF08950895CF92DF92EF92FF920F9344
:102E40001F93CF93DF937C01CB018A0120919603DE
:102E5000222389F0EB016B01C40ED51ECC15DD05D4
:102E600069F06991D701ED91FC910190F081E02D1D
:102E7000C7010995F3CF642F0E94D618C801DF91CE
:102E8000CF911F910F91FF90EF90DF90CF90089519
:102E9000CF93DF931F92CDB7DEB76983209196035E
:102EA0002223D1F020919703203240F021E030E03E
:102EB000FC013383228380E090E015C08091980369
:102EC000E82FF0E0E756FC4F998190838F5F809365
:102ED00098038093970305C061E0CE0101960E949C
:102EE000D61881E090E00F90DF91CF910895FC011A
:102EF0001382128248EE53E060E070E04483558311
:102F00006683778387E492E09183808308951092AB
:102F1000BB031092BA0310929803109297030C947B
:102F2000191881E0809396036093B9031092980377
:102F30001092970308950F93062F21E04091970375
:102F400069E973E08091B9030E947F181092980399
:102F500010929703109296030F9108958F929F926B
:102F6000AF92BF92CF92DF92EF92FF920F931F9397
:102F7000CF93DF93EC01F62ED42E48015901EE20B9
:102F800019F10E9491171E2D143008F013E0115012
:102F9000B8F0E881F98128E0129FB0011124A50161
:102FA000940104C056954795379527956A95D2F7B1
:102FB000CA01B9010190F081E02DCE010995E7CF5A
:102FC00060E0CE010E949B174D2D413208F040E297
:102FD0002C2D6CEB73E08F2D0E9437181092BB03E1
:102FE0008093BA03DF91CF911F910F91FF90EF90E3
:102FF000DF90CF90BF90AF909F908F900895CF9229
:10300000EF920F931F93C22EE12C00E010E0980185
:103010000E94AE171F910F91EF90CF90089521E07D
:103020000C94FF1761E00C949B178AE893E00C94D2
:1030300077171092490481E0809347041092460468
:1030400061E082E10E94DB0C61E083E10E94DB0C25
:10305000E9EBF0E080818E7F808380818D7F8083AB
:1030600088E48093B80085E48093BC0008954132E1
:1030700008F043C0909149049111FCCF91E09093E6
:103080004904209347042FEF2093DC03109221047E
:10309000240F209320049093480490914804880FB3
:1030A000892B8093480480914604813061F410920A
:1030B0004604809148048093BB008091BC0083FD4E
:1030C000F8CF85EC01C085EE8093BC008091490467
:1030D0008130E1F380912104841710F440912104A0
:1030E00022E234E0FB01D9018A2F821B841718F4F5
:1030F0008D918193F9CF842F089580E008950F93E7
:10310000413208F04AC0909149049111FCCF92E0FD
:1031100090934904009347049FEF9093DC0310922F
:10312000210440932004FB0162E274E0DB019A2F4A
:10313000961B941718F491919D93F9CF109248041F
:1031400090914804880F892B80934804809146040D
:10315000813061F410924604809148048093BB0052
:103160008091BC0083FDF8CF85EC01C085EE809393
:10317000BC00222321F0809149048230E1F3809148
:10318000DC038F3F61F08091DC03803251F080914D
:10319000DC03803341F483E007C081E005C080E0B8
:1031A00003C082E001C084E00F910895613298F479
:1031B00020914904243089F46093FE03FC0180E0EF
:1031C00094E0DC012A2F281B261718F421912D9357
:1031D000F9CF80E0089581E0089582E0089585EDBB
:1031E0008093BC008091BC0084FDFCCF1092490408
:1031F000089585EC8093BC001092490408951F92B5
:103200000F920FB60F9211242F933F934F935F931A
:103210006F937F938F939F93AF93BF93EF93FF939E
:103220008091B900887F803609F49EC078F5883295
:1032300009F45DC090F4803109F456C038F4882355
:1032400009F4F5C0883009F44FC0F5C0883109F49D
:103250004EC0803209F45FC0EEC0803409F46AC009
:1032600058F4803309F457C0883309F0E4C08093E0
:10327000DC030E94F918DFC0803509F44FC088359F
:1032800009F45DC0883409F0D6C0D3C0883909F488
:10329000C4C0A8F4883709F467C038F4883609F444
:1032A00063C0803709F460C0C6C0883809F4B5C06F
:1032B000803909F45FC0803809F0BDC05BC0803B35
:1032C00009F483C038F4803A09F466C0883A09F4F6
:1032D0007CC0B1C0803C09F4A4C0883C09F4A1C002
:1032E000883B09F487C0A7C08091480410C0909122
:1032F000210480912004981770F5E091210481E069
:103300008E0F80932104F0E0EE5DFB4F808180936F
:10331000BB0085EC83C08093DC038BC0E09121046B
:1033200081E08E0F809321048091BB00F0E0EE5D80
:10333000FB4F808390912104809120046BC0E09129
:10334000210481E08E0F809321048091BB00F0E086
:10335000EE5DFB4F80838091470481116AC081E05C
:103360008093460484EA5EC083E08093490410920F
:10337000DD03CFCF8091DD03803208F04EC0E091B5
:10338000DD0381E08E0F8093DD038091BB00F0E0D0
:10339000E252FC4F8083BDCF0E94F9188091DD037B
:1033A000803230F4E091DD03F0E0E252FC4F108215
:1033B0006091DD0370E0E0914204F09143048EEDF2
:1033C00093E009951092DD0336C084E080934904B0
:1033D0001092FF031092FE03E0914404F091450423
:1033E00009958091FE03811105C081E08093FE0361
:1033F00010920004E091FF0381E08E0F8093FF03A1
:10340000F0E0E050FC4F80818093BB009091FF037F
:103410008091FE03981708F47CCF85E88093BC0068
:103420000AC085EC8093BC001092490404C010923D
:10343000DC030E94EF18FF91EF91BF91AF919F9134
:103440008F917F916F915F914F913F912F910F904D
:103450000FBE0F901F901895CF93DF93EC018885D6
:1034600099850E94101D8E8187FD05C060E0DF9167
:10347000CF910C94A20CDF91CF910895CF93DF935D
:10348000EC018E8187FD07C061E00E94A20C60E024
:103490008E810E94DB0C81E08983DF91CF910895BA
:1034A000EF92FF920F931F93CF93DF93EC017B0179
:1034B000888599850E94101D9D858A85981303C073
:1034C00083E090E002C084E090E08E9D80018F9DBB
:1034D000100D9E9D100D11241D830C83C8010E94A8
:1034E000781C99878887009741F0A80160E070E018
:1034F0000E94AF1DFB82EA8204C01D821C821B82D7
:103500001A82DF91CF911F910F91FF90EF90089554
:10351000FC0121E095858285981320E0CB0136E0FF
:10352000969587953A95E1F7482F43704587CB01EB
:1035300054E0969587955A95E1F7382F3370328786
:10354000CB01969587959695879583708387862F6F
:103550008370848781E06F3F710511F008F080E08F
:10356000808380859185892B51F091E0431390E011
:10357000921729F062817381CF010C94501A08953B
:10358000CF92DF92EF92FF920F931F93CF93DF932F
:10359000CDB7DEB729970FB6F894DEBF0FBECDBF0B
:1035A0008C01DC0118968D919C911997892B09F457
:1035B0009FC00E94100CF801C684D784E088F1886F
:1035C0006C197D098E099F096C3271408105910546
:1035D00080F3F894D80114968D919C9115979A8355
:1035E000898318960D90BC91A02D7D01EFEFEE1A06
:1035F000FE0A8C918987D8019C9152960D90BC91BE
:10360000A02DF8018489992309F42EC09C91982B50
:1036100098879C91809589238F838F818E8388E002
:103620008D8358856F8149853D812E8189819A815D
:10363000F7015C9347FD252F3A952C93262F39F0FF
:10364000441F00C000006C93000000C0F2CF38E0BF
:1036500041916C930000019761F7F801B38BA28B45
:1036600049873D832E8338C09C91982B98879C91E5
:10367000809589238F838F818C8388E08B83588505
:103680006F8149853B812C8189819A81F7015C9307
:1036900047FD252F00C000C02C9300C000C000C013
:1036A00000C000C06C930000262F3A9541F0441FE3
:1036B000000000C000C000C000C000C0E8CF38E07B
:1036C000419100C06C9300C0019709F7F801B38BDA
:1036D000A28B49873B832C839A83898378940E94A9
:1036E000100CD8011E966D937D938D939C935197EA
:1036F00029960FB6F894DEBF0FBECDBFDF91CF91F4
:103700001F910F91FF90EF90DF90CF9008951F933E
:10371000CF93DF93EC01162F8981882331F08E81BE
:1037200087FD03C060E00E94A20C1E83898188236C
:1037300041F061E0812F0E94A20C60E0812F0E9485
:10374000DB0C812F90E0FC01E75CFA4FE491F0E0A4
:10375000EE0FFF1FE95AFA4F259134913B8B2A8BCC
:10376000FC01EB5DFA4F84918C8BDF91CF911F911F
:103770000895EF92FF920F931F93CF93DF931F92C1
:10378000CDB7DEB77C018B01FC0111821782118657
:10379000108616861786108A118AB90149830E94FD
:1037A000881AB801C7010E94501A4981642FC701C5
:1037B0000F90DF91CF911F910F91FF90EF900C949C
:1037C000871B0F931F93CF93DF93DC0112968D918C
:1037D0009C9113976817790708F042C017968C914F
:1037E0001797882361F0489FA0011124452F289F37
:1037F00090011124232F089F80011124012F1D9671
:103800003C911D971A965C911A9718968D919C91F0
:103810001997FB01351307C0EE0FFF1FE60FF71FC7
:10382000E80FF91F0AC0EE0FFF1FEE0FFF1FE80F92
:10383000F91FEF01C30FD11D18821A968C911A97A8
:10384000EF01C80FD11D48831B968C911B97EF0188
:10385000C80FD11D28831C968C91E80FF11D0083A1
:10386000DF91CF911F910F910895FF920F931F93B6
:10387000CF93DF93EC01FF24F394F60E2F81F21621
:1038800079F1088519852150B9F06F3F59F430E07E
:1038900040E050E06FEF7FEF80E090E00E94451F36
:1038A000B9010CC08F2D90E0982F88270197622FC7
:1038B00070E00E940F1F02C060E070E0F8018C8190
:1038C0009D81AF01401B510B4817590740F44081BF
:1038D000469FC001479F900D11249193F0CFFF8226
:1038E000DF91CF911F910F91FF9008950E949F1D2E
:1038F000CF93DF938230910510F482E090E0E09165
:103900004C04F0914D0420E030E0A0E0B0E03097AE
:1039100039F14081518148175907B8F048175907C4
:1039200071F482819381109729F013969C938E9362
:1039300012972CC090934D0480934C0427C02115FE
:10394000310531F04217530718F0A901DB0101C01E
:10395000EF019A01BD01DF010280F381E02DD7CF95
:1039600021153105F9F0281B390B2430310580F47D
:103970008A819B816115710521F0FB01938382830C
:1039800004C090934D0480934C04FE01329644C0D1
:10399000FE01E20FF31F8193919322503109398385
:1039A00028833AC020914A0430914B04232B41F4E0
:1039B000209102013091030130934B0420934A047B
:1039C00020910001309101012115310541F42DB7FD
:1039D0003EB74091040150910501241B350BE09145
:1039E0004A04F0914B04E217F307A0F42E1B3F0B9F
:1039F0002817390778F0AC014E5F5F4F2417350761
:103A000048F04E0F5F1F50934B0440934A0481933C
:103A1000919302C0E0E0F0E0CF01DF91CF910895F3
:103A2000CF93DF93009709F487C0FC01329713828C
:103A30001282C0914C04D0914D04209781F42081D2
:103A40003181280F391F80914A0490914B048217CD
:103A5000930779F5F0934B04E0934A046DC0DE01BF
:103A600020E030E0AE17BF0750F412964D915C9104
:103A700013979D014115510509F1DA01F3CFB38385
:103A8000A28340815181840F951F8A179B0771F48F
:103A90008D919C911197840F951F0296918380833D
:103AA00012968D919C9113979383828321153105F2
:103AB00029F4F0934D04E0934C043EC0D9011396D1
:103AC000FC93EE9312974D915D91A40FB51FEA17E9
:103AD000FB0779F480819181840F951F0296D901AB
:103AE00011969C938E938281938113969C938E93CF
:103AF0001297E0E0F0E08A819B81009719F0FE01C7
:103B0000EC01F9CFCE01029628813981820F931FF3
:103B100020914A0430914B042817390769F43097F3
:103B200029F410924D0410924C0402C013821282A8
:103B3000D0934B04C0934A04DF91CF91089581E064
:103B400090E0F8940C94841FF8940C94841F9111C5
:103B5000089581568A5108F4805285580895DC01F1
:103B600001C06D9341505040E0F708950CD0EBC078
:103B7000E3D040F0DAD030F021F45F3F19F0CCC050
:103B8000511115C1CFC0F0D098F39923C9F3552333
:103B9000B1F3951B550BBB27AA2762177307840740
:103BA00038F09F5F5F4F220F331F441FAA1FA9F3F6
:103BB00033D00E2E3AF0E0E830D091505040E695E8
:103BC000001CCAF729D0FE2F27D0660F771F881F49
:103BD000BB1F261737074807AB07B0E809F0BB0B38
:103BE000802DBF01FF2793585F4F2AF09E3F51055C
:103BF00068F092C0DCC05F3FECF3983EDCF3869542
:103C000077956795B795F7959F5FC9F7880F911DD1
:103C10009695879597F90895E1E0660F771F881FBD
:103C2000BB1F621773078407BA0720F0621B730B70
:103C3000840BBA0BEE1F88F7E095089504D06894C2
:103C4000B111B5C0089598D088F09F5790F0B92F62
:103C50009927B751A0F0D1F0660F771F881F991FE1
:103C60001AF0BA95C9F712C0B13081F09FD0B1E017
:103C700008959CC0672F782F8827B85F39F0B93F27
:103C8000CCF3869577956795B395D9F73EF49095E3
:103C90008095709561957F4F8F4F9F4F0895E89461
:103CA00009C097FB3EF490958095709561957F4F84
:103CB0008F4F9F4F9923A9F0F92F96E9BB27939532
:103CC000F695879577956795B795F111F8CFFAF442
:103CD000BB0F11F460FF1BC06F5F7F4F8F4F9F4F73
:103CE00016C0882311F096E911C0772321F09EE8D1
:103CF000872F762F05C0662371F096E8862F70E037
:103D000060E02AF09A95660F771F881FDAF7880F10
:103D10009695879597F9089597F99F6780E870E0E1
:103D200060E008959FEF80EC089500240A94161631
:103D3000170618060906089500240A941216130699
:103D4000140605060895092E0394000C11F4882327
:103D500052F0BB0F40F4BF2B11F460FF04C06F5F43
:103D60007F4F8F4F9F4F089557FD9058440F551F19
:103D700059F05F3F71F04795880F97FB991F61F0ED
:103D80009F3F79F087950895121613061406551F64
:103D9000F2CF4695F1DF08C0161617061806991FD0
:103DA000F1CF86957105610508940895E894BB27C5
:103DB00066277727CB0197F90895F999FECF92BD31
:103DC00081BDF89A992780B50895262FF999FECFDD
:103DD0001FBA92BD81BD20BD0FB6F894FA9AF99A28
:103DE0000FBE01960895DB018F939F930E94731F6E
:103DF000BF91AF91A29F800D911DA39F900DB29F87
:103E0000900D11240895991B79E004C0991F96170D
:103E100008F0961B881F7A95C9F780950895AA1B0C
:103E2000BB1B51E107C0AA1FBB1FA617B70710F0A5
:103E3000A61BB70B881F991F5A95A9F780959095D7
:103E4000BC01CD010895A1E21A2EAA1BBB1BFD01E6
:103E50000DC0AA1FBB1FEE1FFF1FA217B307E40769
:103E6000F50720F0A21BB30BE40BF50B661F771FC1
:103E7000881F991F1A9469F76095709580959095A1
:103E80009B01AC01BD01CF010895052E97FB1EF4E7
:103E900000940E945C1F57FD07D00E94231F07FC5F
:103EA00003D04EF40C945C1F5095409530952195AD
:103EB0003F4F4F4F5F4F0895909580957095619556
:103EC0007F4F8F4F9F4F0895A29FB001B39FC001B6
:103ED000A39F700D811D1124911DB29F700D811D36
:103EE0001124911D08950E94641FA59F900DB49FF9
:103EF000900DA49F800D911D11240895EE0FFF1FBA
:103F00000590F491E02D099415E0C4E7D5E004C0D4
:103F1000FE010E94801F2296C637D107C9F7F89488
:023F2000FFCFD1
:103F220000004E04800001000000443103814C4532
:103F3200038C4C45048C52450382475205834F4EF5
:103F420002844F460385424C058653450387574FEB
:103F52000488535406895645078A4845048B4445CC
:103F620005FD5254038D4144038E4D55088F54452F
:103F7200049052470391544904925245079300001A
:103F8200000000FFFF190001BBBB01F40104002087
:103F92002B2000203D2000202A20002F003A004341
:103FA200202D2000255248002066726F6D2061642A
:103FB20064722000202D204C6F7765737420546545
:103FC2006D702000202D2048696768657374205445
:103FD200656D7020007365745F626C696E6B5F77EC
:103FE2006F7264007365745F626C696E6B000820A7
:103FF2000800526561642044485432322066616987
:104002006C65642C206572723D0000000000340E65
:104012000B0FB60DCF0DC10D120E0D0A006E616EA3
:1040220000696E66006F7666002E0000000000EDEB
:1040320013C915CA13761C761CF8130B140F14AC93
:10404200141314761C231400000000ED13C915CAC2
:104052001324168914F8130B140F14AC1413141729
:104062001523140000000048171B17F016F8160B52
:04407200171A170002
:00000001FF
