:100000000C945D000C9485000C9485000C94850084
:100010000C9485000C9485000C9485000C9485004C
:100020000C9485000C9485000C9485000C9485003C
:100030000C9485000C9485000C9485000C9485002C
:100040000C945D050C9485000C9486060C94B806FF
:100050000C9485000C9485000C9485000C9485000C
:100060000C9485000C94850000000008000201003B
:100070000003040700000000000000000102040863
:100080001020408001020408102001020408102002
:10009000040404040404040402020202020203032E
:1000A0000303030300000000250028002B000000CC
:1000B0000000240027002A00E80611241FBECFEF0D
:1000C000D8E0DEBFCDBF15E0A0E0B1E0EAE3F4E1A7
:1000D00002C005900D92A23CB107D9F726E0A2EC30
:1000E000B5E001C01D92A03BB207E1F710E0CAEBFA
:1000F000D0E004C02297FE010E94170AC83BD10736
:10010000C9F70E9471080C94E8090C94000062EA97
:1001100075E083E196E00E94CB0862E471E083E140
:1001200096E00E94CB0866E571E083E196E00E94CC
:10013000CB086FE571E083E196E00E94CB0865E8AB
:1001400071E083E196E00E94CB086BEA71E083E105
:1001500096E00E94CB0865ED71E083E196E00E9495
:10016000CB086DEF71E083E196E00E94CB0869E374
:1001700072E083E196E00E94CB086BE572E083E1D8
:1001800096E00E94CB086BE872E083E196E00E9463
:10019000CB0863EB72E083E196E00E94CB086BED45
:1001A00072E083E196E00E94CB0867E173E083E1AF
:1001B00096E00E94CB0861E573E083E196E00E943F
:1001C000CB0864E973E083E196E00E94CB086FEB13
:1001D00073E083E196E00C94CB08E8EDF5E0119232
:1001E00085E0E23EF807D9F7E2EEF5E0119286E00D
:1001F000EA30F807D9F708956EEE73E083E196E0F0
:100200000E94CB081092C2050C94ED001092C2051A
:1002100080913F01882331F06EE174E083E196E044
:100220000E94CB088091DC056091DB0570E090E8CE
:10023000899F600D711D11247093410160934001ED
:1002400080913F01882331F04AE050E083E196E05D
:100250000E94D2090C94ED001092C20580913F01DA
:10026000882331F06DE274E083E196E00E94CB08D0
:100270006091DA0570E070934101609340018091D4
:100280003F01882331F04AE050E083E196E00E948C
:10029000D2090C94ED001092C20580913F01882391
:1002A00031F067E374E083E196E00E94CB0881E0DF
:1002B0008093D10510923D011092D0050C94ED0071
:1002C0001092C20580913F01882331F065E474E00B
:1002D00083E196E00E94CB081092D10581E08093E3
:1002E0003D011092D0050C94ED001092C205809152
:1002F0003F01882331F061E574E083E196E00E94DC
:10030000CB0881E08093D0050C94ED001092C205DB
:1003100080913F01882331F06DE574E083E196E040
:100320000E94CB0881E08093CF050C94ED00809172
:100330003F01882331F068E674E083E196E00E9493
:10034000CB081092CF0508951092C20580913F010D
:10035000882331F064E774E083E196E00E94CB08E3
:100360008091CF058823D1F08091D205882399F020
:1003700065E874E083E196E00E94BE086091400168
:10038000709141014AE050E083E196E00E94CC097F
:100390006EE974E005C06CEA74E002C065EB74E0DD
:1003A00083E196E00E94CB088091D005882331F04C
:1003B0006FEB74E083E196E00E94CB0880913D01F1
:1003C000811104C09091D105992339F190913E019A
:1003D0009923C1F0882319F06AEC74E002C065EE3D
:1003E00074E083E196E00E94CB0860914001709137
:1003F00041014AE050E083E196E00E94CC096EE9B9
:1004000074E007C0882319F062E075E002C06DE077
:1004100075E083E196E00E94CB080C94ED0080919A
:10042000C205882309F4ACC01092C2058091D8059A
:100430008938A9F160F4873838F4823808F09EC012
:10044000813809F47BC09AC08738B1F197C08C38E5
:1004500009F449C040F48A3881F08B3809F08EC025
:100460000E94870018C08E3F08F488C06AE175E0DA
:1004700083E196E00E94CB080EC066E275E083E15E
:1004800096E00E94BE084AE050E064E070E083E13C
:1004900096E00E9490091092C2050C94ED008091A4
:1004A000D9058C3809F06AC08091DA058F3F09F0D0
:1004B00065C00E94A401F1CF8091D905863809F06A
:1004C0005DC08091DA05883839F48091DD058F3F71
:1004D00009F054C00C9406018091DB058F3F09F0B0
:1004E0004DC00C942C018091D905833849F018F443
:1004F000823861F043C0853879F08638A1F03EC07B
:100500008091DA058F3FD1F50C944B018091DA058B
:100510008F3FA1F50C9460018091DA058F3F71F552
:100520000E947501B8CF8091DA058F3F39F580912F
:100530003E0191E0892780933E01AFCF8091D9059C
:10054000853851F0863879F08438C1F48091DA0525
:100550008F3FA1F40C9486018091DA058F3F71F4EE
:100560000E94970198CF8091DA058F3F39F48091EE
:10057000D20591E089278093D2058FCF0C94FC009F
:100580000895BF92CF92DF92EF92FF920F931F9345
:10059000CF93DF938091C305882309F438C110926B
:1005A000CA051092C9051092C7051AE00EEF38E887
:1005B000F32ECFEFDFEFEE24E3946091CA05E62F30
:1005C000F0E0EE51FA4F8081882309F4EAC0262F2B
:1005D00030E0F901EE51FA4FD08081E0860F90E2D1
:1005E000D91202C0682FF3CF6093CA05C090C60528
:1005F0007091C8054091C4055091C505862F90E0C3
:10060000BB24B394B60EDC01AE51BA4FAC91AF7DB2
:1006100031F0C12C70E040E050E06B2DEFCF6093E3
:10062000C905C092C6057093C8055093C50540938F
:10063000C405821B930B823091050CF4ACC02D2DA8
:10064000332727FD3095DF011196E72FF0E0E050CA
:10065000FF4F4081442321F150E024173507F1F486
:10066000CC90DD24C7FCD094418150E0C416D5065F
:10067000A9F4428150E08417950781F47093C8056E
:10068000E092C605A091C70581E08A0F8093C70557
:10069000B0E0A852BA4F83818C9304C07C5FD5CF61
:1006A0007093C8058091C605811175C08091C405FD
:1006B0009091C5052091CA05261768F5E22FF0E054
:1006C000EE51FA4F308141E0420F50ED530F5A3056
:1006D000A8F02093C8059093C5058093C405809128
:1006E0003F01882331F06DE475E083E196E00E94DC
:1006F000CB08D093C505C093C40513C0FC011E9F51
:10070000C0011F9F900D1124C097830F911D37FDCD
:100710009A95242FD1CF2093C8059093C505809337
:10072000C4058091C4059091C505E091C70581304D
:10073000F0EE9F0740F58F379105E0F0AE2FB0E067
:10074000A852BA4FFC92A1E0AE0FB0E0A852BA4F47
:10075000282F2F772C9323E02E0F2093C705EE5FD1
:10076000F0E0E852FA4F880F892F881F990B919576
:100770008F7707C091E09E0F9093C705F0E0E85295
:10078000FA4F808308C081E08E0F8093C705F0E0A8
:10079000E852FA4F00838091C9058F5F8093CA05A4
:1007A0000CCFE091C705F0E0E852FA4F8FEF80835D
:1007B0001092C30580913F01811104C081E08093B4
:1007C000C20525C008ED15E0C0E0D0E062E775E0A5
:1007D00083E196E00E94BE084AE050E0BE0183E15A
:1007E00096E00E94880966E875E083E196E00E9441
:1007F000BE08F80161918F014AE050E083E196E084
:100800000E94B5092196CA30D10501F7D7CFDF91F3
:10081000CF911F910F91FF90EF90DF90CF90BF90FD
:1008200008950F931F938091CF05882339F080910D
:10083000D205811103C081E08093CE050E94A705F7
:100840000091D3051091D4052091D5053091D6059E
:10085000601B710B820B930B0091400110914101C1
:1008600020E030E06017710782079307C0F18091A4
:10087000CF05882351F08091D205882331F08091F3
:10088000CE0591E089278093CE058091D005811116
:100890001CC080913E018823C1F080913D018823D6
:1008A00041F08091CD0591E089278093CD0510928C
:1008B000CC058091D105882341F08091CC0591E051
:1008C00089278093CC051092CD050E94A7056093DF
:1008D000D3057093D4058093D5059093D605809168
:1008E000D005811116C090913E01911112C09091D6
:1008F0003D01992329F091E09093CD051092CC050C
:100900009091D105992329F091E09093CC05109214
:10091000CD059091CF05911102C01092CE0588238C
:1009200021F01092CD051092CC051F910F910895E2
:100930006091CE058DE00E9450066091CD0582E069
:100940000E9450066091CC0583E00C94500626E08E
:1009500040E855E260E070E083E196E00E940E0816
:1009600061E08DE00E94170661E082E00E941706B8
:1009700061E083E00C941706EF92FF920F931F93B0
:10098000CF93DF931F92CDB7DEB783E196E00E944D
:100990002B07181619060CF07EC083E196E00E9422
:1009A0004407682F8093CB0580EE860F8F35C8F4FF
:1009B0001091D7051732A8F481E0810F8093D705F5
:1009C000862F992787FD909569830E94EB09E12F77
:1009D000F0E0EE51FA4F8083698183E196E00E9456
:1009E000C0088091CB058D30F1F5E091D705F0E09E
:1009F000EE51FA4F108262EA75E083E196E00E94C0
:100A0000CB0880913F01811106C081E08093C3052E
:100A10001092D70528C042EEE42E45E0F42E87015F
:100A2000025E15408091D70590E0081719076CF712
:100A30006DE875E083E196E00E94BE084AE050E070
:100A4000B80183E196E00E94880966E875E083E1D9
:100A500096E00E94BE08F70161917F0183E196E074
:100A60000E94DD08DCCF8091CB058F37A1F4809107
:100A7000D705882381F081508093D7056FE975E011
:100A800083E196E00F90DF91CF911F910F91FF903E
:100A9000EF900C94BE080F90DF91CF911F910F91B2
:100AA000FF90EF9008950E94BC040E94C1020E9432
:100AB0000F020E9411040C9498041F920F920FB61B
:100AC0000F9211242F933F938F939F93AF93BF93D4
:100AD00080910B0690910C06A0910D06B0910E0628
:100AE00030910A0623E0230F2D3720F40196A11D33
:100AF000B11D05C026E8230F0296A11DB11D20934C
:100B00000A0680930B0690930C06A0930D06B093F3
:100B10000E0680910F0690911006A0911106B091DB
:100B200012060196A11DB11D80930F069093100629
:100B3000A0931106B0931206BF91AF919F918F9130
:100B40003F912F910F900FBE0F901F9018952FB7C8
:100B5000F89460910B0670910C0680910D069091AF
:100B60000E062FBF0895789484B5826084BD84B545
:100B7000816084BD85B5826085BD85B5816085BD98
:100B8000EEE6F0E0808181608083E1E8F0E01082B1
:100B9000808182608083808181608083E0E8F0E0F2
:100BA000808181608083E1EBF0E0808184608083DC
:100BB000E0EBF0E0808181608083EAE7F0E0808113
:100BC0008460808380818260808380818160808373
:100BD0008081806880831092C1000895833081F005
:100BE00028F4813099F08230A1F008958730A9F07F
:100BF0008830B9F08430D1F4809180008F7D03C0BB
:100C0000809180008F7780938000089584B58F77DE
:100C100002C084B58F7D84BD08958091B0008F7728
:100C200003C08091B0008F7D8093B0000895CF9372
:100C3000DF9390E0FC01E458FF4F2491FC01E05762
:100C4000FF4F8491882349F190E0880F991FFC01A0
:100C5000E255FF4FA591B4918C559F4FFC01C59172
:100C6000D4919FB7611108C0F8948C91209582238C
:100C70008C93888182230AC0623051F4F8948C915D
:100C8000322F309583238C938881822B888304C0F4
:100C9000F8948C91822B8C939FBFDF91CF91089514
:100CA0000F931F93CF93DF931F92CDB7DEB7282FFB
:100CB00030E0F901E859FF4F8491F901E458FF4F02
:100CC0001491F901E057FF4F04910023C9F08823E4
:100CD00021F069830E94EE056981E02FF0E0EE0FBC
:100CE000FF1FEC55FF4FA591B4919FB7F8948C91DD
:100CF000611103C01095812301C0812B8C939FBF8C
:100D00000F90DF91CF911F910F9108951F920F9235
:100D10000FB60F9211242F938F939F93EF93FF930E
:100D2000E0912306F09124068081E0912906F0915C
:100D30002A0682FD12C0908180912C068F5F8F73EE
:100D400020912D06821751F0E0912C06F0E0ED5E27
:100D5000F94F958F80932C0601C08081FF91EF9110
:100D60009F918F912F910F900FBE0F901F9018950C
:100D70001F920F920FB60F9211242F933F934F9310
:100D80005F936F937F938F939F93AF93BF93EF93F3
:100D9000FF9383E196E00E946607FF91EF91BF9178
:100DA000AF919F918F917F916F915F914F913F9103
:100DB0002F910F900FBE0F901F90189583E196E032
:100DC0000E942B0721E0892B09F420E0822F08954F
:100DD000109216061092150688EE93E0A0E0B0E09F
:100DE0008093170690931806A0931906B0931A06DD
:100DF00087EA95E0909314068093130685EC90E0C3
:100E00009093200680931F0684EC90E09093220636
:100E10008093210680EC90E0909324068093230633
:100E200081EC90E0909326068093250682EC90E07A
:100E3000909328068093270686EC90E090932A06EC
:100E40008093290610922C0610922D0610922E06E1
:100E500010922F060895FC01818D228D90E0805C18
:100E60009F4F821B91098F7399270895FC01918DE3
:100E7000828D981731F0828DE80FF11D858D90E0FD
:100E800008958FEF9FEF0895FC01918D828D981743
:100E900061F0828DDF01A80FB11D5D968C91928D5E
:100EA0009F5F9F73928F90E008958FEF9FEF08955B
:100EB0008EED96E0892B49F080E090E0892B29F0B7
:100EC0000E94DE0681110C9400000895FC01848DBF
:100ED000DF01A80FB11DA35ABF4F2C91848D90E064
:100EE00001968F739927848FA689B7892C93A0893F
:100EF000B1898C9180648C93938D848D981306C0F6
:100F00000288F389E02D80818F7D80830895CF93BF
:100F1000DF93EC01888D8823C9F0EA89FB89808101
:100F200085FD05C0A889B9898C9186FD0FC00FB6D3
:100F300007FCF5CF808185FFF2CFA889B9898C9114
:100F400085FFEDCFCE010E946607E7CFDF91CF91FD
:100F50000895CF92DF92FF920F931F93CF93DF9369
:100F60001F92CDB7DEB76C0181E0D60158968C9305
:100F700058975B969C915B975C968C915C979813C5
:100F800007C05096ED91FC915197808185FD2EC050
:100F9000F601038D10E00F5F1F4F0F731127F02E26
:100FA000F601848DF81211C00FB607FCF9CFD601F7
:100FB0005096ED91FC915197808185FFF1CFC6014C
:100FC00069830E9466076981EBCF838DE80FF11D6D
:100FD000E35AFF4F6083D6015B960C935B97529662
:100FE000ED91FC915397808180620CC0D60156969A
:100FF000ED91FC91579760835096ED91FC9151973C
:1010000080818064808381E090E00F90DF91CF91B8
:101010001F910F91FF90DF90CF900895BF92CF92D4
:10102000DF92EF92FF92CF93DF93EC016A017B0195
:10103000B22EE889F98982E08083411581EE580754
:1010400061057105A1F060E079E08DE390E0A70112
:1010500096010E94F3092150310941095109569521
:10106000479537952795211580E1380798F0E8894D
:10107000F989108260E874E88EE190E0A70196019A
:101080000E94F309215031094109510956954795AC
:1010900037952795EC85FD853083EE85FF85208388
:1010A000188EEC89FD89B082EA89FB898081806194
:1010B0008083EA89FB89808188608083EA89FB8953
:1010C000808180688083EA89FB8980818F7D80832D
:1010D000DF91CF91FF90EF90DF90CF90BF90089578
:1010E00008950E94B3050E9470080E94A704C8E5F5
:1010F000D7E00E9453052097E1F30E945807F9CFEB
:10110000CF92DF92EF92FF920F931F93CF93DF93D3
:101110007C016A01EB0100E010E00C151D0571F087
:101120006991D701ED91FC910190F081E02DC7010B
:101130000995892B19F00F5F1F4FEFCFC801DF9181
:10114000CF911F910F91FF90EF90DF90CF90089576
:101150006115710581F0DB010D900020E9F7AD010B
:1011600041505109461B570BDC01ED91FC91028067
:10117000F381E02D099480E090E008950C94A80894
:10118000DC01ED91FC910190F081E02D099463EB7D
:1011900075E00C94A8080F931F93CF93DF93EC0195
:1011A0000E94A8088C01CE010E94C708800F911FE1
:1011B000DF91CF911F910F9108950F931F93CF93BC
:1011C000DF93EC010E94C0088C01CE010E94C70889
:1011D000800F911FDF91CF911F910F9108958F92F2
:1011E0009F92AF92BF92DF92EF92FF920F931F9365
:1011F000CF93DF93CDB7DEB7A1970FB6F894DEBFDC
:101200000FBECDBF7C01F42FD52ECB0119A2223009
:1012100008F42AE08E010F5D1F4F822E912CA12C25
:10122000B12C6F2F7D2DA50194010E94F309F22F9F
:10123000D32ECA01015011096A3014F4E0E301C051
:10124000E7E3E60FD801EC93232B242B252B49F75A
:10125000B801C7010E94A808A1960FB6F894DEBF96
:101260000FBECDBFDF91CF911F910F91FF90EF90F7
:10127000DF90BF90AF909F908F900895CF92DF92B4
:10128000EF92FF920F931F93CF93DF93EC016A01CC
:101290007B012115310579F4E881F9810190F08114
:1012A000E02D642FDF91CF911F910F91FF90EF9070
:1012B000DF90CF9009942A303105E9F477FF1AC006
:1012C0006DE20E94C0088C0144275527BA014C19D1
:1012D0005D096E097F092AE0CE010E94EF08800FA8
:1012E000911FDF91CF911F910F91FF90EF90DF90B1
:1012F000CF9008952AE0B701A601CE01DF91CF91EA
:101300001F910F91FF90EF90DF90CF900C94EF081A
:101310009A01AB01662757FD6095762F0C943E0924
:101320000F931F93CF93DF93EC019A01AB016627D4
:1013300057FD6095762F0E943E098C01CE010E94D8
:10134000C708800F911FDF91CF911F910F910895D2
:101350002115310541F4DC01ED91FC910190F08102
:10136000E02D642F09940C94EF080F931F93CF93F3
:10137000DF93EC019A01462F50E060E070E00E949C
:10138000A8098C01CE010E94C708800F911FDF9130
:10139000CF911F910F9108959A01AB0160E070E029
:1013A0000C94A8090F931F93CF93DF93EC019A013C
:1013B000AB0160E070E00E94A8098C01CE010E94A0
:1013C000C708800F911FDF91CF911F910F91089552
:1013D000F8940C941B0A9111089581568A5108F4CF
:1013E000805285580895A1E21A2EAA1BBB1BFD014D
:1013F0000DC0AA1FBB1FEE1FFF1FA217B307E407F4
:10140000F50720F0A21BB30BE40BF50B661F771F4B
:10141000881F991F1A9469F760957095809590952B
:101420009B01AC01BD01CF010895EE0FFF1F059098
:0A143000F491E02D0994F894FFCF29
:10143A00443103814C45038C4C45048C524503824C
:10144A00475205834F4E02844F460385424C058618
:10145A0053450387574F0488535406895645078ACC
:10146A004845048B444505FD0000000000010101C8
:10147A00F40120202020202020202D48454C5020F7
:10148A004D454E552D00434F4D4D414E4453004856
:10149A00454C50202020202020202020202D205084
:1014AA0072696E747320746869732068656C702041
:1014BA006D656E75004431332020202020202020C5
:1014CA002020202D20436F6E74726F6C73206F6E14
:1014DA002D626F617264206C6564002020202020D8
:1014EA00202020202020202020202065783B204416
:1014FA003133204F4E202D207475726E7320443183
:10150A0033206F6E00202020202020202020202041
:10151A002020202020443133204F4646202D20749D
:10152A0075726E7320443133206F66660020202066
:10153A002020202020202020202020202044313359
:10154A0020424C494E4B202D20626C696E6B7320F1
:10155A0044313320402053455420424C494E4B20BD
:10156A00696E74657276616C004C454420202020B7
:10157A00202020202020202D20436F6E74726F6C53
:10158A0073206578742E204C4544002020202020AA
:10159A00202020202020202020202065783B204C5D
:1015AA00454420475245454E202D207475726E736E
:1015BA00204C454420677265656E0020202020205B
:1015CA0020202020202020202020204C454420526A
:1015DA004544202D207475726E73204C4544207248
:1015EA006564002020202020202020202020202088
:1015FA002020204C4544204F4646202D20747572E9
:10160A006E73204C4544206F6666002020202020FF
:10161A0020202020202020202020204C4544204229
:10162A004C494E4B202D20626C696E6B73204C45E1
:10163A004420402053455420424C494E4B20696E69
:10164A0074657276616C0053455420424C494E4B86
:10165A0020232323202D207365747320626C696E06
:10166A006B20696E74657276616C20666F72206198
:10167A006C6C206C656427732027696E206D732754
:10168A000020202020202020202020202020202070
:10169A002065783B2053455420424C494E4B20311B
:1016AA00303030202D205365747320626C696E6B64
:1016BA0020696E74657276616C20746F20313030E7
:1016CA00306D7300535441545553204C45442020E7
:1016DA0020202D205072696E7473205374617475C2
:1016EA0073206F6620616C6C204C4544277300564A
:1016FA00455253494F4E202020202020202D205093
:10170A0072696E74732063757272656E742050729A
:10171A006F6772616D2056657273696F6E00204241
:10172A00616420696E7075742E2E74797065202735
:10173A0048454C502720666F722061206C6973748B
:10174A00206F6620636F6D6D616E64732000736530
:10175A00745F626C696E6B5F776F72640073657435
:10176A005F626C696E6B007365745F4C45445F67BA
:10177A007265656E007365745F4C45445F7265649B
:10178A00007365745F4C45445F6F666600736574E9
:10179A005F4431335F6F6E007365745F4431335F4A
:1017AA006F6666007072696E745F4C45445F73744D
:1017BA00617475730020443133202D204F4E2C2044
:1017CA00426C696E6B2072617465203D2000206D49
:1017DA00696C6C697365636F6E647300443133209E
:1017EA002D204F4E00443133202D204F4646004CC9
:1017FA004544206973206F666600204C4544206981
:10180A0073205265642C20426C696E6B207261747D
:10181A0065203D2000204C4544206973206772658D
:10182A00656E2C20426C696E6B2072617465203D76
:10183A0020004C454420697320526564004C45449D
:10184A0020697320477265656E00496E7075742051
:10185A004552524F520042656E6E696527732044A5
:10186A006F7065204450532050726F6A656374210B
:10187A002056657273696F6E3A20762E002057657E
:10188A0069726420496E7075742074686572652087
:10189A0066656C6C612C2054727920416761696EAF
:1018AA0020002020745F62756666657220696E6426
:1018BA006578202D2000202D69732D2000202062BC
:1018CA00756666657220696E646578202D20000849
:1018DA0020080000000000A90780082B07440736EB
:1018EA000787070D0A006E616E00696E66006F76E3
:0218FA00660086
:00000001FF
